{
  "_format": "hh-sol-artifact-1",
  "contractName": "ConsumerEx3FromL2",
  "sourceName": "contracts/ConsumerEx3FromL2.sol",
  "abi": [
    {
      "anonymous": false,
      "inputs": [
        {
          "indexed": true,
          "internalType": "address",
          "name": "previousOwner",
          "type": "address"
        },
        {
          "indexed": true,
          "internalType": "address",
          "name": "newOwner",
          "type": "address"
        }
      ],
      "name": "OwnershipTransferred",
      "type": "event"
    },
    {
      "inputs": [
        {
          "internalType": "uint256",
          "name": "l2ContractAddress",
          "type": "uint256"
        },
        {
          "internalType": "uint256",
          "name": "l2_user",
          "type": "uint256"
        }
      ],
      "name": "consumeMessage",
      "outputs": [],
      "stateMutability": "nonpayable",
      "type": "function"
    },
    {
      "inputs": [],
      "name": "owner",
      "outputs": [
        {
          "internalType": "address",
          "name": "",
          "type": "address"
        }
      ],
      "stateMutability": "view",
      "type": "function"
    },
    {
      "inputs": [],
      "name": "renounceOwnership",
      "outputs": [],
      "stateMutability": "nonpayable",
      "type": "function"
    },
    {
      "inputs": [
        {
          "internalType": "address",
          "name": "starknetCore_",
          "type": "address"
        }
      ],
      "name": "setStarknetCoreContract",
      "outputs": [],
      "stateMutability": "nonpayable",
      "type": "function"
    },
    {
      "inputs": [
        {
          "internalType": "address",
          "name": "newOwner",
          "type": "address"
        }
      ],
      "name": "transferOwnership",
      "outputs": [],
      "stateMutability": "nonpayable",
      "type": "function"
    }
  ],
  "bytecode": "0x608060405234801561001057600080fd5b5061002d61002261003260201b60201c565b61003a60201b60201c565b6100fe565b600033905090565b60008060009054906101000a900473ffffffffffffffffffffffffffffffffffffffff169050816000806101000a81548173ffffffffffffffffffffffffffffffffffffffff021916908373ffffffffffffffffffffffffffffffffffffffff1602179055508173ffffffffffffffffffffffffffffffffffffffff168173ffffffffffffffffffffffffffffffffffffffff167f8be0079c531659141344cd1fd0a4f28419497f9722a3daafe3b4186f6b6457e060405160405180910390a35050565b6108868061010d6000396000f3fe608060405234801561001057600080fd5b50600436106100575760003560e01c80634697d7551461005c578063715018a6146100785780637c5ec16b146100825780638da5cb5b1461009e578063f2fde38b146100bc575b600080fd5b6100766004803603810190610071919061048e565b6100d8565b005b6100806101fc565b005b61009c6004803603810190610097919061052c565b610210565b005b6100a661025c565b6040516100b39190610568565b60405180910390f35b6100d660048036038101906100d1919061052c565b610285565b005b6000600167ffffffffffffffff8111156100f5576100f4610583565b5b6040519080825280602002602001820160405280156101235781602001602082028036833780820191505090505b509050818160008151811061013b5761013a6105b2565b5b602002602001018181525050600160009054906101000a900473ffffffffffffffffffffffffffffffffffffffff1673ffffffffffffffffffffffffffffffffffffffff16632c9dd5c084836040518363ffffffff1660e01b81526004016101a49291906106ae565b602060405180830381600087803b1580156101be57600080fd5b505af11580156101d2573d6000803e3d6000fd5b505050506040513d601f19601f820116820180604052508101906101f69190610714565b50505050565b610204610309565b61020e6000610387565b565b610218610309565b80600160006101000a81548173ffffffffffffffffffffffffffffffffffffffff021916908373ffffffffffffffffffffffffffffffffffffffff16021790555050565b60008060009054906101000a900473ffffffffffffffffffffffffffffffffffffffff16905090565b61028d610309565b600073ffffffffffffffffffffffffffffffffffffffff168173ffffffffffffffffffffffffffffffffffffffff1614156102fd576040517f08c379a00000000000000000000000000000000000000000000000000000000081526004016102f4906107c4565b60405180910390fd5b61030681610387565b50565b61031161044b565b73ffffffffffffffffffffffffffffffffffffffff1661032f61025c565b73ffffffffffffffffffffffffffffffffffffffff1614610385576040517f08c379a000000000000000000000000000000000000000000000000000000000815260040161037c90610830565b60405180910390fd5b565b60008060009054906101000a900473ffffffffffffffffffffffffffffffffffffffff169050816000806101000a81548173ffffffffffffffffffffffffffffffffffffffff021916908373ffffffffffffffffffffffffffffffffffffffff1602179055508173ffffffffffffffffffffffffffffffffffffffff168173ffffffffffffffffffffffffffffffffffffffff167f8be0079c531659141344cd1fd0a4f28419497f9722a3daafe3b4186f6b6457e060405160405180910390a35050565b600033905090565b600080fd5b6000819050919050565b61046b81610458565b811461047657600080fd5b50565b60008135905061048881610462565b92915050565b600080604083850312156104a5576104a4610453565b5b60006104b385828601610479565b92505060206104c485828601610479565b9150509250929050565b600073ffffffffffffffffffffffffffffffffffffffff82169050919050565b60006104f9826104ce565b9050919050565b610509816104ee565b811461051457600080fd5b50565b60008135905061052681610500565b92915050565b60006020828403121561054257610541610453565b5b600061055084828501610517565b91505092915050565b610562816104ee565b82525050565b600060208201905061057d6000830184610559565b92915050565b7f4e487b7100000000000000000000000000000000000000000000000000000000600052604160045260246000fd5b7f4e487b7100000000000000000000000000000000000000000000000000000000600052603260045260246000fd5b6105ea81610458565b82525050565b600081519050919050565b600082825260208201905092915050565b6000819050602082019050919050565b61062581610458565b82525050565b6000610637838361061c565b60208301905092915050565b6000602082019050919050565b600061065b826105f0565b61066581856105fb565b93506106708361060c565b8060005b838110156106a1578151610688888261062b565b975061069383610643565b925050600181019050610674565b5085935050505092915050565b60006040820190506106c360008301856105e1565b81810360208301526106d58184610650565b90509392505050565b6000819050919050565b6106f1816106de565b81146106fc57600080fd5b50565b60008151905061070e816106e8565b92915050565b60006020828403121561072a57610729610453565b5b6000610738848285016106ff565b91505092915050565b600082825260208201905092915050565b7f4f776e61626c653a206e6577206f776e657220697320746865207a65726f206160008201527f6464726573730000000000000000000000000000000000000000000000000000602082015250565b60006107ae602683610741565b91506107b982610752565b604082019050919050565b600060208201905081810360008301526107dd816107a1565b9050919050565b7f4f776e61626c653a2063616c6c6572206973206e6f7420746865206f776e6572600082015250565b600061081a602083610741565b9150610825826107e4565b602082019050919050565b600060208201905081810360008301526108498161080d565b905091905056fea2646970667358221220a882c591b338007a3f21152fe008a73a4c87034fbea9a77cecb17eba9a0f30ca64736f6c63430008090033",
  "linkReferences": {},
  "deployedLinkReferences": {}
}