{
  "_format": "hh-sol-artifact-1",
  "contractName": "ReceiveMessageFromL2",
  "sourceName": "contracts/ReceiveMessageFromL2.sol",
  "abi": [
    {
      "anonymous": false,
      "inputs": [
        {
          "indexed": true,
          "internalType": "address",
          "name": "previousOwner",
          "type": "address"
        },
        {
          "indexed": true,
          "internalType": "address",
          "name": "newOwner",
          "type": "address"
        }
      ],
      "name": "OwnershipTransferred",
      "type": "event"
    },
    {
      "inputs": [],
      "name": "Ex02Selector",
      "outputs": [
        {
          "internalType": "uint256",
          "name": "",
          "type": "uint256"
        }
      ],
      "stateMutability": "view",
      "type": "function"
    },
    {
      "inputs": [],
      "name": "owner",
      "outputs": [
        {
          "internalType": "address",
          "name": "",
          "type": "address"
        }
      ],
      "stateMutability": "view",
      "type": "function"
    },
    {
      "inputs": [],
      "name": "renounceOwnership",
      "outputs": [],
      "stateMutability": "nonpayable",
      "type": "function"
    },
    {
      "inputs": [
        {
          "internalType": "uint256",
          "name": "l2_user",
          "type": "uint256"
        }
      ],
      "name": "sendFromThisContractToL2",
      "outputs": [],
      "stateMutability": "nonpayable",
      "type": "function"
    },
    {
      "inputs": [
        {
          "internalType": "uint256",
          "name": "_evaluatorContractAddress",
          "type": "uint256"
        }
      ],
      "name": "setEvaluatorContractAddress",
      "outputs": [],
      "stateMutability": "nonpayable",
      "type": "function"
    },
    {
      "inputs": [
        {
          "internalType": "uint256",
          "name": "_selector",
          "type": "uint256"
        }
      ],
      "name": "setSelector",
      "outputs": [],
      "stateMutability": "nonpayable",
      "type": "function"
    },
    {
      "inputs": [
        {
          "internalType": "address",
          "name": "starknetCore_",
          "type": "address"
        }
      ],
      "name": "setStarknetCoreContract",
      "outputs": [],
      "stateMutability": "nonpayable",
      "type": "function"
    },
    {
      "inputs": [
        {
          "internalType": "address",
          "name": "newOwner",
          "type": "address"
        }
      ],
      "name": "transferOwnership",
      "outputs": [],
      "stateMutability": "nonpayable",
      "type": "function"
    }
  ],
  "bytecode": "0x608060405234801561001057600080fd5b5061002d61002261003260201b60201c565b61003a60201b60201c565b6100fe565b600033905090565b60008060009054906101000a900473ffffffffffffffffffffffffffffffffffffffff169050816000806101000a81548173ffffffffffffffffffffffffffffffffffffffff021916908373ffffffffffffffffffffffffffffffffffffffff1602179055508173ffffffffffffffffffffffffffffffffffffffff168173ffffffffffffffffffffffffffffffffffffffff167f8be0079c531659141344cd1fd0a4f28419497f9722a3daafe3b4186f6b6457e060405160405180910390a35050565b6109528061010d6000396000f3fe608060405234801561001057600080fd5b50600436106100885760003560e01c80637c5ec16b1161005b5780637c5ec16b146100eb5780638da5cb5b14610107578063a218952f14610125578063f2fde38b1461014357610088565b806308d1fb251461008d578063361f1089146100a95780636e439c00146100c5578063715018a6146100e1575b600080fd5b6100a760048036038101906100a29190610544565b61015f565b005b6100c360048036038101906100be9190610544565b610171565b005b6100df60048036038101906100da9190610544565b61029a565b005b6100e96102ac565b005b610105600480360381019061010091906105cf565b6102c0565b005b61010f61030c565b60405161011c919061060b565b60405180910390f35b61012d610335565b60405161013a9190610635565b60405180910390f35b61015d600480360381019061015891906105cf565b61033b565b005b6101676103bf565b8060028190555050565b6000600167ffffffffffffffff81111561018e5761018d610650565b5b6040519080825280602002602001820160405280156101bc5781602001602082028036833780820191505090505b50905081816000815181106101d4576101d361067f565b5b602002602001018181525050600160009054906101000a900473ffffffffffffffffffffffffffffffffffffffff1673ffffffffffffffffffffffffffffffffffffffff16633e3aa6c5600254600354846040518463ffffffff1660e01b81526004016102439392919061076c565b602060405180830381600087803b15801561025d57600080fd5b505af1158015610271573d6000803e3d6000fd5b505050506040513d601f19601f8201168201806040525081019061029591906107e0565b505050565b6102a26103bf565b8060038190555050565b6102b46103bf565b6102be600061043d565b565b6102c86103bf565b80600160006101000a81548173ffffffffffffffffffffffffffffffffffffffff021916908373ffffffffffffffffffffffffffffffffffffffff16021790555050565b60008060009054906101000a900473ffffffffffffffffffffffffffffffffffffffff16905090565b60035481565b6103436103bf565b600073ffffffffffffffffffffffffffffffffffffffff168173ffffffffffffffffffffffffffffffffffffffff1614156103b3576040517f08c379a00000000000000000000000000000000000000000000000000000000081526004016103aa90610890565b60405180910390fd5b6103bc8161043d565b50565b6103c7610501565b73ffffffffffffffffffffffffffffffffffffffff166103e561030c565b73ffffffffffffffffffffffffffffffffffffffff161461043b576040517f08c379a0000000000000000000000000000000000000000000000000000000008152600401610432906108fc565b60405180910390fd5b565b60008060009054906101000a900473ffffffffffffffffffffffffffffffffffffffff169050816000806101000a81548173ffffffffffffffffffffffffffffffffffffffff021916908373ffffffffffffffffffffffffffffffffffffffff1602179055508173ffffffffffffffffffffffffffffffffffffffff168173ffffffffffffffffffffffffffffffffffffffff167f8be0079c531659141344cd1fd0a4f28419497f9722a3daafe3b4186f6b6457e060405160405180910390a35050565b600033905090565b600080fd5b6000819050919050565b6105218161050e565b811461052c57600080fd5b50565b60008135905061053e81610518565b92915050565b60006020828403121561055a57610559610509565b5b60006105688482850161052f565b91505092915050565b600073ffffffffffffffffffffffffffffffffffffffff82169050919050565b600061059c82610571565b9050919050565b6105ac81610591565b81146105b757600080fd5b50565b6000813590506105c9816105a3565b92915050565b6000602082840312156105e5576105e4610509565b5b60006105f3848285016105ba565b91505092915050565b61060581610591565b82525050565b600060208201905061062060008301846105fc565b92915050565b61062f8161050e565b82525050565b600060208201905061064a6000830184610626565b92915050565b7f4e487b7100000000000000000000000000000000000000000000000000000000600052604160045260246000fd5b7f4e487b7100000000000000000000000000000000000000000000000000000000600052603260045260246000fd5b600081519050919050565b600082825260208201905092915050565b6000819050602082019050919050565b6106e38161050e565b82525050565b60006106f583836106da565b60208301905092915050565b6000602082019050919050565b6000610719826106ae565b61072381856106b9565b935061072e836106ca565b8060005b8381101561075f57815161074688826106e9565b975061075183610701565b925050600181019050610732565b5085935050505092915050565b60006060820190506107816000830186610626565b61078e6020830185610626565b81810360408301526107a0818461070e565b9050949350505050565b6000819050919050565b6107bd816107aa565b81146107c857600080fd5b50565b6000815190506107da816107b4565b92915050565b6000602082840312156107f6576107f5610509565b5b6000610804848285016107cb565b91505092915050565b600082825260208201905092915050565b7f4f776e61626c653a206e6577206f776e657220697320746865207a65726f206160008201527f6464726573730000000000000000000000000000000000000000000000000000602082015250565b600061087a60268361080d565b91506108858261081e565b604082019050919050565b600060208201905081810360008301526108a98161086d565b9050919050565b7f4f776e61626c653a2063616c6c6572206973206e6f7420746865206f776e6572600082015250565b60006108e660208361080d565b91506108f1826108b0565b602082019050919050565b60006020820190508181036000830152610915816108d9565b905091905056fea264697066735822122052ebcc2410ee3195af1d72ec80065c5fbc67f9238ee6ca19cde8f5a88e06507964736f6c63430008090033",
  "linkReferences": {},
  "deployedLinkReferences": {}
}